S0180000476363426F61726450726F6A656374312E737265630F
S113000045C000004BC0000049C0000047C00000CC
S113001045C0000043C0000041C000003FC00000D4
S11300203DC000003BC0000039C0000037C00000E4
S113003035C0000033C0000031C000002FC00000F4
S11300402DC000002BC0000029C0000027C0000004
S113005025C0000023C0000021C000001FC0000014
S11300601DC000001BC0000019C0000017C0000024
S113007015C0000013C0000011C000000FC0000034
S11300800DC000000BC0000009C0000011241FBEF9
S1130090CFEFD0E1DEBFCDBF28D05CC0B1CF089593
S11300A0181619066CF420E030E0E9EFF0E031971F
S11300B0F1F700C000002F5F3F4F28173907A9F759
S11300C00895FC0120E030E041E050E0CA01022E36
S11300D002C0880F991F0A94E2F7819391932F5FCE
S11300E03F4F2830310591F70895CF93DF93CDB773
S11300F0DEB760970FB6F894DEBF0FBECDBFCFDF7B
S11301008FEF81BB87BBCE01019620E1FC011192E8
S11301102A95E9F7D6DF10E0FF24F39400E483B3D3
S1130120882321F01F2588EE93E0BADF112349F0DC
S113013002BB8AEF90E0B4DF12BA8AEF90E0B0DF3E
S1130140EECF02BB88EE93E0ABDF12BA88EE93E009
S10B0150A7DFE5CFF894FFCF0F
S9030000FC
