S0180000476363426F61726450726F6A656374312E737265630F
S113000045C000004BC0000049C0000047C00000CC
S113001045C0000043C0000041C000003FC00000D4
S11300203DC000003BC0000039C0000037C00000E4
S113003035C0000033C0000031C000002FC00000F4
S11300402DC000002BC0000029C0000027C0000004
S113005025C0000023C0000021C000001FC0000014
S11300601DC000001BC0000019C0000017C0000024
S113007015C0000013C0000011C000000FC0000034
S11300800DC000000BC0000009C0000011241FBEF9
S1130090CFEFD0E1DEBFCDBF7BD09FC0B1CF0895FD
S11300A0181619066CF420E030E0E9EFF0E031971F
S11300B0F1F700C000002F5F3F4F28173907A9F759
S11300C00895FC0120E030E041E050E0CA01022E36
S11300D002C0880F991F0A94E2F7819391932F5FCE
S11300E03F4F2830310591F70895FC0120E030E0BE
S11300F041E050E0CA01022E02C0880F991F0A9401
S1130100E2F7819391932F5F3F4F2830310591F7A8
S11301100895DF92EF92FF920F931F93CF93DF9393
S11301208C01C0E0D0E0DD24DA94EE24E3940F2EB9
S1130130FFE7FF2EF02D29B330E0F801219331932E
S11301408F01232BC9F0C130D10569F01CF420972D
S113015041F00FC0C230D10541F0C330D10539F0B0
S113016008C0F2BA06C0D2BA04C0E5BA02C012BAD4
S113017015BA88EE93E094DF2196C830D105D9F6FC
S1130180DF91CF911F910F91FF90EF90DF90089531
S1130190CF93DF93CDB7DEB7A0970FB6F894DEBF49
S11301A00FBECDBF7CDF8FEF81BB84BB87BB20E15B
S11301B08E010F5F1F4FF801822F11928A95E9F784
S11301C0CE014196FC0111922A95E9F77ADFC80124
S11101D08CDFCE0101969DDFFCCFF894FFCFAB
S9030000FC
